:10086E006D6F76696E6720666F7277617264007362
:10087E00746F7070696E67006D6F76696E67206C4D
:10088E00656674006D6F76696E672072696768744D
:01089E000059
:0C089F008F90C2A2C2A3D2A47F057E00ED
:1008AB00E4FDFCC3ED9FEC9E5015E4FBFA0BBB0083
:0F08BB00010ABA01F8BBF4F50DBD00010C80E491
:0108CA00220B
:1008CB008B088A09890AAB08AA09A90A1208F460DD
:1008DB0017050AE50A7002050914F91208F4FF332B
:0908EB0095E0FE12095080DE22A6
:040919007F807E005D
:06091D0012089FC2A42293
:0609500012089FC2A42260
:09092300D282C283D284C2852273
:09092C00C282D283C284D285226A
:09093500D282C283C284C2852271
:09093E00C282C283D284C2852268
:09094700C282C283C284C285226F
:100800007F387E0012091D7F107E0012091D7F0CAB
:100810007E0012091DD2A0D2A120A01220A10F1289
:1008200009197BFF7A08796E1208CB02092330A0E0
:100830001220A10F1209197BFF7A08797D1208CBCB
:1008400002094720A01230A10F1209197BFF7A0874
:1008500079861208CB02093530A01220A10F1209A7
:0E086000197BFF7A0879921208CB12093E220A
:0300000002090DE5
:0C090D00787FE4F6D8FD75810A0208002E
:1008F400BB010689828A83E0225002E722BBFE0202
:09090400E32289828A83E4932234
:00000001FF
